:020000040800F2
:1000000000000120C5020008CD020008D10200084E
:1000100045030008490300089103000800000000A0
:10002000000000000000000000000000D9030008EC
:10003000DD03000800000000E10300085909000882
:10004000F5030008F5030008F5030008F5030008B0
:10005000F5030008F5030008F5030008F5030008A0
:10006000F5030008F5030008F5030008F503000890
:10007000F5030008F5030008F5030008F503000880
:10008000F5030008F5030008F50300080000000070
:10009000000000000000000000000000F503000860
:1000A000F5030008F5030008F5030008F503000850
:1000B000F5030008F5030008F5030008F503000840
:1000C000F5030008F5030008F5030008F503000830
:1000D000F503000849080008F503000800000000C7
:1000E000F5030008F5030008F50300080000000010
:1000F000000000000000000000000000F503000800
:1001000000000000F5030008F5030008F5030008EF
:1001100000000000000000000000000000000000DF
:10012000F5030008F5030008F5030008F5030008CF
:10013000F5030008000000000000000000000000BF
:10014000000000000000000000000000F5030008AF
:10015000F5030008F5030008F5030008F50300089F
:10016000F5030008F503000800000000000000008F
:10017000000000000000000000000000000000007F
:1001800000000000F503000800000000000000006F
:10019000F503000800B583B000F0BCF9384B394ACC
:1001A0001360394A136039490CE00A684B6801F161
:1001B0000C04886803E01168196004330432984223
:1001C000F9D82146324B9942EFD32E4B1A68314B66
:1001D0009A4204D12C4B1A682F4B9A4200D0FEE76A
:1001E000274B2E4A13602E4A13602E4B0AE0194605
:1001F00051F8082B5B6802E00020106004329A423C
:10020000FAD30B46284A9342F1D3244B1B6813B907
:10021000234B1B6803B1FEE700F088F9694601A88B
:1002200000F022F9214C224B1C1BA410002504E0F5
:100230001E4B53F8253098470135AC42F8DC1D4C75
:100240001D4B1C1BA410002504E01A4B53F825304D
:1002500098470135AC42F8DC0099019801F056FD51
:100260000546164C164B1C1BA41004E0013C134B16
:1002700053F824309847002CF8DC284600F0D0F8DA
:10028000BABADECA0000002084020020F803000889
:1002900010040008785634123254769888020020F0
:1002A000180600201004000820040008200400089C
:1002B000200400082004000820040008200400088E
:1002C0002004000808B5FFF765FF00BF00BEFEE789
:1002D0001EF0040F0CBFEFF30880EFF309807146A6
:1002E000414A10472DE9F04182B004468846134B3D
:1002F0005E6B9F6B9D6A1B6B13F0020F0DD00F4B53
:10030000DB6A002B09DA4BF6AB6100F08BF920B108
:100310004FF00042094BDA620CE0094800F0ACF8FB
:10032000CDF800803B4632462946204600F002F9CF
:1003300000BEFEE702B0BDE8F08100BF00ED00E0C6
:10034000342D000800BEFEE71EF0040F0CBFEFF3D3
:100350000880EFF309807146244A10472DE9F041E7
:1003600082B004468846084B5E6B9F6B9D6A0748C7
:1003700000F082F8CDF800803B4632462946204600
:1003800000F0D8F800BEFEE700ED00E0442D0008C4
:100390001EF0040F0CBFEFF30880EFF309807146E5
:1003A000134A10472DE9F04182B004468846084BB5
:1003B0005E6B9F6B9D6A074800F05EF8CDF8008089
:1003C0003B4632462946204600F0B4F800BEFEE720
:1003D00000ED00E0502D000800BEFEE700BEFEE785
:1003E00000BEFEE770470000E50200085D0300085C
:0803F000A503000800BEFEE7B2
:1003F800682E00080000002088020020682E0008EF
:100408000000001000000010880200201C060020D8
:080418000000001000000010BC
:10042000FEE700BF08B50D4B1B6813B90C4A0B4B18
:100430001A600A4B1A68C31C23F0030313440949CA
:100440008B4206D901F054FF0C2303604FF0FF30BC
:1004500008BD02490B60104608BD00BF8C02002099
:100460001C06002000FC002001230360014B0B60F0
:10047000704700BF040000200FB400B583B004AB88
:1004800053F8042B01938021064801F063FF0028F4
:1004900003DD0146034800F039F803B05DF804EBD2
:1004A00004B07047940200202DE9F04385B0044663
:1004B0000F46435613BB042528462146ABBE0446CF
:1004C0001FE03546102E28BF1025002306E014F942
:1004D000011B04AA1A4402F8101C0133AB42F6D3E4
:1004E00004AA1344002203F8102CE9464FF0040834
:1004F00040464946ABBE8046761B00E00E46002EC5
:10050000DFD1384605B0BDE8F08300BF08B5FFF77E
:10051000CBFF08BD08B500F095F8024B024A9A607F
:1005200008BD00BF00ED00E00000000808B500F0C5
:10053000A9F808BDF8B504460D4617461E462648DC
:10054000FFF79AFF21682548FFF796FF6168244866
:10055000FFF792FFA1682348FFF78EFFE16822486A
:10056000FFF78AFF21692148FFF786FF616920486C
:10057000FFF782FFA1691F48FFF77EFFE1691E4870
:10058000FFF77AFF1D48FFF777FF29461C48FFF762
:1005900073FF1C4CE16A1C48FFF76EFF216B1B4880
:1005A000FFF76AFFE16B1A48FFF766FF15F0800F4F
:1005B00003D039461748FFF75FFF15F4004F03D00B
:1005C00031461548FFF758FF1448FFF755FF0699C5
:1005D0001348FFF751FFF8BD182C0008282C00081D
:1005E000382C0008482C0008582C0008682C0008FB
:1005F000782C0008882C0008982C0008A82C0008EB
:10060000B42C000800ED00E0C42C0008D42C000835
:10061000E42C0008F42C0008042D0008142D000818
:100620001C2D000883691A888A4207D10268033AA0
:10063000012A05D8023383610120704700207047EA
:10064000002070470C4B1A6842F001021A6000212A
:1006500099601A6822F0847222F480321A60074A84
:100660005A601A6822F480221A60D9604FF0006242
:10067000034B9A60704700BF0038024010300024DE
:1006800000ED00E0224B9B6803F00C03042B07D025
:10069000082B09D0002B2DD11E4A1F4B1A602CE0CD
:1006A0001E4A1D4B1A6028E0194B5A685B6803F01C
:1006B0003F0312F4800F09D0184AB2FBF3F2144B37
:1006C0005B68C3F3881303FB02F208E0114AB2FB34
:1006D000F3F30F4A5168C1F3881101FB03F20C4B8D
:1006E0005B68C3F3014301335B00B2FBF3F30A4AD7
:1006F000136002E0074A084B1A60054B9B68C3F37E
:100700000313074AD15C044A1368CB401360704757
:10071000003802400024F4000C00002040787D01E5
:10072000602D000838B5002415E00C4B53F8243038
:1007300053B9A20022449300094D1D44EB68984729
:100740006A68064B43F82420044A52F82430013BDF
:1007500042F824300134062CE7D938BD8C03002040
:100760001000002008B5002309E003EB83018A0094
:100770000A490A4411690A4A42F823100133062B38
:10078000F3D9002000F0A4F800F0CAF8012000F02E
:10079000B5F8044800F0D6F808BD00BF10000020EE
:1007A0008C0300202507000808B500F0C1F8054BB0
:1007B0001B78012BFBD1013B024A1370FFF7B2FFFC
:1007C000F5E700BF1403002040F283638360C36831
:1007D00043F40053C360C36843F00803C360C368B5
:1007E00043F00403C36000230360704730B40A4C35
:1007F000247B74B9084C012525732160A280002256
:10080000E280A3602061C36843F08003C3600B787B
:10081000436030BC704700BF2C03002030B4094C4B
:10082000247B64B9074C012525732160A280002236
:10083000E280A3602061C36843F02003C36030BC42
:10084000704700BF1803002038B51F4B1B691A689A
:1008500012F0800F17D01C49CA88898801398A4252
:1008600007DA013292B21849CA8009688A5C5A6074
:1008700009E0DA6822F08002DA60134B00221A7372
:100880009B6803B19847114B1B691A6812F0200F3F
:1008900018D00E49CA8889888A4205D20B48046854
:1008A0005D68A5540132C280084AD288914209D1BC
:1008B000DA6822F02002DA60044B00221A739B6887
:1008C00003B1984738BD00BF2C0300201803002057
:1008D00010B1012807D00DE0074A136823F0040384
:1008E000136001207047044A136843F00403136047
:1008F000012070470020704710E000E04FF4FA63D9
:1009000003FB00F00138044B984203D8034B5860B6
:100910000120704700207047FEFFFF0010E000E05C
:10092000024A136843F002031360704710E000E0CE
:10093000034B01229A601A6842F001021A60704764
:1009400010E000E018B1034A106001207047002059
:10095000704700BF4003002008B5024B1B6803B17D
:10096000984708BD40030020032821D8032821D838
:10097000DFE800F0020910170F4A136843F0010383
:100980001360012070470C4A136843F480331360EE
:1009900001207047084A136843F0807313600120F8
:1009A0007047054A136843F48023136001207047A1
:1009B000002070470120704700380240022847D8C5
:1009C00001281CD028B102282FD043E00133DBB22C
:1009D00000E00023234A126812F0020F01D1C72B56
:1009E000F4D9204B1B6813F0020F35D01D4A9368D1
:1009F00018439060012070470133DBB200E0002310
:100A0000184A126812F4003F01D1C72BF4D9154BD4
:100A10001B6813F4003F21D0124A9368184390607A
:100A2000012070470133DBB200E000230D4A126859
:100A300012F0807F01D1C72BF4D90A4B1B6813F049
:100A4000807F0DD0074A936818439060012070475B
:100A5000002070470020704700207047002070473A
:100A6000002070470038024043B2002B30DB1F28C3
:100A70000AD810B4194C216B012202FA00F343EAA0
:100A800001002063104627E03F2809D813494A6B2C
:100A9000A0F12003012000FA03F313434B637047D6
:100AA0005F2809D80D490A6CA0F14003012000FA23
:100AB00003F313430B647047002B0BDB07494A6CAD
:100AC000A0F16003012000FA03F313434B64704765
:100AD000002070470120704710BC7047003802406A
:100AE00054280DD8430900F01F009B0003F1604318
:100AF00003F56143012202FA00F0186000207047FC
:100B00000220704700283DD070B40346816801F090
:100B10000301456828681A6852000324944020EABB
:100B2000040001FA02F202432A6001290BD15C6839
:100B3000A0681A68510003228A4020EA0200DA689D
:100B40008A400243A2609A68C2F381015D68EC6842
:100B50001A685200032000FA02F624EA060401FA99
:100B600002F22243EA609A68C2F300115D686C6881
:100B70001A68904024EA000001FA02F202436A6017
:100B8000012001E00020704770BC704710280ED88B
:100B90007AB10B69012101FA00F01840106010B120
:100BA0000846116070470023136001207047002041
:100BB00070470020704700BF10B4102813D84AB106
:100BC000012A12D14C6902FA00F343EA0400486199
:100BD00010460BE04C69012202FA00F324EA0300FC
:100BE0004861104602E0002000E0002010BC704781
:100BF00010B407280BD80B6A80000F24844023EA26
:100C0000040302FA00F018430862012013E0A0F187
:100C10000803062B0ED84B6A00F18040083880008C
:100C20000F24844023EA040302FA00F018434862C8
:100C3000012000E0002010BC704700BF10B584B058
:100C40000123039300240FE009496300181982006F
:100C500088188A5801924268009283680293684615
:100C6000FFF750FF0134E4B2062CEDD904B010BDFB
:100C70009C00002070B582B0002428E0254616486C
:100C8000630023449900461801AA41587068FFF791
:100C90007DFFB268019B83EA9203DBB20F4A125DCB
:100CA000934204D10E490A5D01320A5502E0002147
:100CB0000B4A11550A4A525D052A04D1094A535577
:100CC0000021074A5155054A53550134E4B2062C18
:100CD000D4D902B070BD00BF9C0000205403002096
:100CE0004C03002044030020014B1B5C0B70704739
:100CF0004403002010B584B0012302930223039320
:100D000000240EE0094963001819820010460A44C5
:100D1000526800920B5801936846FFF7F3FE0134C6
:100D2000E4B2002CEED0012004B010BDC82D0008A4
:100D3000002308E003EB83018A0004490A441221DE
:100D400051710133DBB21D2BF4D97047A803002089
:100D500038B5284B1B78033B062B4AD8DFE803F055
:100D60000449101C36493E00234B0022D3F8801062
:100D7000D3F88400FFF720FF05221E4B1A7038BD00
:100D80001D4B0022D3F89010D3F89400FFF714FF06
:100D90000622184B1A7038BD174B0122D3F8A01049
:100DA000D3F8A400FFF708FF0722124B1A7038BDD2
:100DB00011492301C81845FA04F202F00102C9588A
:100DC0004068FFF7F9FE0134E4B201E00546002473
:100DD000072CEDD90922074B1A7038BD064B0022AB
:100DE000D3F8A010D3F8A400FFF7E6FE0A22014BC7
:100DF0001A7038BDF1000020F400002008B5264B21
:100E00001B78013B0D2B46D8DFE803F0071545455D
:100E10004545454545454523313F204A1378023332
:100E2000DBB213701E2B36D100221C4B1A7002222B
:100E3000194B1A7008BD3820FFF78AFF184B1B7832
:100E40000A2B28D10322164B1A700C22124B1A704F
:100E500008BD0E20FFF77CFF114B1B780A2B1AD11F
:100E600003220F4B1A700D220B4B1A7008BD012084
:100E7000FFF76EFF0A4B1B780A2B0CD10322084B9D
:100E80001A700E22044B1A7008BD0E22024B1A7003
:100E90000F22044B1A7008BDF000002068030020E8
:100EA000F10000205B03002080B110B50446102340
:100EB00043710120FFF74CFF054B1B780A2B04D12F
:100EC0000322034B1A701223637110BD704700BFD9
:100ED000F100002000B30346027C012A1CD810B5A3
:100EE0001021417112B1012A02D005E0407C04E0DA
:100EF000407C4030C0B200E000201C4680F0800002
:100F0000FFF726FF054B1B780A2B04D10322034B66
:100F10001A701223637110BD704700BFF1000020EA
:100F200038B5431EDBB2FD2B4ED80546274B1B7848
:100F3000043B052B48D8DFE803F0030F1B47353C83
:100F4000234B0122D3F88010D3F88400FFF734FE3E
:100F500005221E4B1A7038BD1D4B0022D3F890108D
:100F6000D3F89400FFF728FE0622184B1A7038BDFC
:100F7000174B0122D3F8A010D3F8A400FFF71CFEF2
:100F80000822124B1A7038BD11492301C81845FABE
:100F900004F202F00102C9584068FFF70DFE013467
:100FA000E4B200E00024072CEED90922074B1A70A6
:100FB00038BD074B0022D3F8A010D3F8A400FFF7E8
:100FC000FBFD0B22014B1A7038BD00BFF200002060
:100FD000F4000020F8B110B50446102343710268F4
:100FE0000D4B1B78D05CFFF79BFF0C4B1B780B2B3A
:100FF00006D1094A1378013313700422074B1A7083
:101000002279054B1B789A4204D10022024B1A70B8
:101010001223637110BD70475C030020F2000020B2
:10102000002862D070B50446304B187838BB1023C6
:10103000637100210EE0628A2D4BA3FB0253DB0893
:1010400003EB83067500521B30322A4D6A546382CB
:101050000131C9B20329EED90023264A5354032291
:1010600008E02449CD568E56CE548D540133DBB260
:10107000013AD2B29342F4D301301C4B18701E4B8C
:101080001B7823B91B4A92F90020302A0BD0012B80
:101090000DD1184A92F90020302A08D1154A92F948
:1010A0000120302A03D10133134A137003E0114A9F
:1010B000D05CFFF735FF114B1B780B2B06D10E4A86
:1010C00013780133137004220C4B1A700A4B1B78EF
:1010D000042B02D0074AD35633B90023064A1370B3
:1010E000024A13701223637170BD70475F030020C2
:1010F000CDCCCCCC640300205E030020F2000020A5
:1011000030B585B0FFF714FE012302930223039349
:10111000002517E00D4A05EB850305EB4303234447
:101120001B01D118D35801934B6804A840F8103D17
:10113000FFF7E8FC0134E4B200E000240A2CE9D90E
:101140000135EDB2002DF8D005B030BDF40000201F
:1011500070B4154B1A7802EB8204A300134C23449D
:101160005B79122B11D11D2A11D890B193009E18D2
:10117000B500661960513171112171711323B3717A
:101180000132094B1A70012004E0002002E0002027
:1011900000E00020044B1B781E2B02D10022024BE2
:1011A0001A7070BC704700BF5D030020A8030020C8
:1011B00010B4134B1A7802EB82018B0011490B44D7
:1011C0005B79122B0FD11D2A0FD80C46930099186A
:1011D0008800204411214171142383710132084B8E
:1011E0001A70012002E0002000E00020044B1B7870
:1011F0001E2B02D10022024B1A7010BC704700BF98
:101200005D030020A803002070B4154B1A7802EB90
:101210008204A300134C23445B79122B14D11D2AA2
:1012200014D825469400A618B3002B4411265E71ED
:1012300015269E711874A318980028444174013231
:10124000074B1A70012002E0002000E00020044B50
:101250001B781E2B02D10022014B1A7070BC704704
:101260005D030020A803002030B4154B1A7802EB70
:1012700082018B0013490B445B79122B13D11D2A79
:1012800013D80C4693009D18A900214411254D71D7
:1012900016258D7113449900214448820132084B70
:1012A0001A70012002E0002000E00020044B1B78AF
:1012B0001E2B02D10022024B1A7030BC704700BFB7
:1012C0005D030020A803002008B52A4B1B7813B942
:1012D000FFF794FD08BD0F2B4AD1274B1B7803EB7A
:1012E00083018A0025490A445279122A40D01D2BD5
:1012F0003ED803EB83018A0020490A449279133ACD
:10130000032A22D8DFE802F0020A121A03EB830351
:101310009A001A481044FFF75DFE16E003EB8303C2
:101320009A0016481044FFF7BFFD0EE003EB83035D
:101330009A0012481044FFF7CDFD06E003EB83034B
:101340009A000E481044FFF76BFE0B4B1B7803EB23
:1013500083018A0009490A445279122A08D10133CB
:10136000DBB2054A13701E2B02D10022024B1A7009
:1013700008BD00BF5B03002060030020A80300201D
:101380000122014B1A707047A401002010B4002301
:101390001A4604E0C45C121BD2B20133DBB28B42AA
:1013A000F8D3104610BC70470D4B1B78012B15D19C
:1013B00010B500220A4B1A700A4C4123237060704A
:1013C00002212046FFF7E2FFA0705A23E370064B8C
:1013D000042221460548FFF709FA10BD704700BFF7
:1013E000A401002000060020811300080010014025
:1013F00000B338B5144B1B78012B1DD104460022D5
:10140000114B1A70114D124B042229461148FFF757
:1014100005FA02212846FFF7B9FF2B78412B0DD1A1
:10142000AB7898420CD1EB785A2B0BD16B782370A8
:10143000002038BD03207047002038BD022038BD91
:10144000022038BD022038BDA5010020080600207A
:10145000591400080010014008B50122024B1A700F
:101460000248FFF7C5FF08BDA50100200C060020BB
:1014700070B588B006466420FFF7F6FA1348FFF708
:10148000A3F92520FFF72CFB114C04AD94E80F00C5
:1014900085E80F002846FFF735FB103494E80F006D
:1014A0008DE80F006846FFF72DFB0A4C0722214606
:1014B0000920FFF79DFB072221460A20FFF798FB32
:1014C0003046FFF795FF08B070BD00BF0010014027
:1014D000D42D0008000002401C4B1B893B2B02D975
:1014E00000221A4B1A81194BDB893B2B02D90022AF
:1014F000164BDA81154B9B8AB3F57A7F02D900220D
:10150000124BDA81114B5B88013B9BB20B2B02D94A
:1015100001220E4B5A800D4BDB8C013B9BB21D2BE5
:1015200002D90122094BDA84084B9B8D013B9BB207
:101530000B2B02D90122054B9A85044B1B8C062BE1
:1015400002D90022014B1A84704700BFA801002075
:1015500038B5FFF7C1FF4A4BD3E90023134304D04A
:10156000484B1B78DBB2012B0FD147494A8A8B8944
:101570004FF47A7000FB0322CB884EF6602101FB0A
:101580000322D3173E49C1E900233D4BD3E900456F
:10159000643445F10005C3E9004564220023204678
:1015A000294600F019FD13430AD1374A538A6433A0
:1015B0009BB25382B3F57A7F02D30022324B5A8218
:1015C0004FF47A7200232046294600F005FD1343AC
:1015D00009D12D4A938901339BB293813B2B02D9C8
:1015E0000022294B9A814EF660220023204629468C
:1015F00000F0F2FC134309D1234AD38801339BB294
:10160000D3803B2B02D900221F4BDA801F4A0023D4
:101610002046294600F0E0FC134330D11A4A1388D3
:1016200001339BB213800C2B29D901231380138B18
:1016300083F001031383164A52F82320154B9A4274
:101640001DD1114AD38B01339BB2D383062B02D910
:1016500000220D4BDA830C4A938C01339BB29384A6
:101660001E2B0CD9538D01339BB2538501219184DC
:101670000C2B04D91346128E0A441A86598538BD9C
:101680007003002079030020A801002080EE3600BE
:10169000E4010020F42D00080C4B1B78DBB24C2B2E
:1016A0000AD0522B10D10A4A13780133DBB21370DF
:1016B000FF22064B1A707047054A1378013BDBB2D4
:1016C0001370FF22014B1A70704700BF14020020F4
:1016D0007B030020C2B2344B1A70A0F14403152BD7
:1016E0004AD8DFE803F03A4949490B4949491A10F9
:1016F000493F4949491549494935494400222A4B3E
:101700001A702A4A39E00122274B1A70284A34E01D
:101710000222254B1A70274A2FE00322224B1A700F
:10172000254B1B78DBB2552B04D1244A938A6433B2
:10173000938208E0204B1B78DBB2442B03D11F4A75
:10174000938A643B9382FF221B4B1A70002214E0A1
:101750000522154B1A701A4A0FE00622124B1A7016
:10176000184A0AE00722104B1A70174A05E00822AF
:101770000D4B1A70154A00E000224C2813D00E4B76
:101780001B78DBB2552B03D113880133138007E09C
:10179000094B1B78DBB2442B02D11388013B138029
:1017A000FF22054B1A7070471C020020AA0100207E
:1017B000B0010020B601002014020020A801002082
:1017C000C8010020CE010020D4010020DA01002051
:1017D00008B50F4B1B78DBB20D2B17D8DFE803F0F1
:1017E000070707160B0B160F0F16131313135720AB
:1017F000FFF770FF08BD4420FFF76CFF08BD4F20C6
:10180000FFF768FF08BD5920FFF764FF08BD00BF60
:101810007B030020094B1B78DBB2552B04D0074B10
:101820001B78DBB2442B04D1054A138B83F00103F0
:101830001383FF22014B1A70704700BF140200206F
:10184000A801002008B5114B1B78DBB20F2B1BD869
:10185000DFE803F00808081A0C0C1A10101A141408
:10186000141A18184820FFF735FF08BD4D20FFF760
:1018700031FF08BD5320FFF72DFF08BD4C20FFF7B7
:1018800029FF08BDFFF7C6FF08BD00BF7B0300208E
:101890000A4B1B78DBB2552B03D10022084B1A7080
:1018A00007E0064B1B78DBB2442B02D10122044B2C
:1018B0001A70FF22014B1A70704700BF14020020FB
:1018C00078030020084BFF225A80DA81DA849A8557
:1018D0005A865A831A811A840022044B1A60012204
:1018E000034B1A60704700BFA801002018020020B7
:1018F00010020020074B64221A704FF4FA6199809D
:101900005A709A700122044B1A600022034B1A602D
:10191000704700BF080200201802002010020020BB
:101920002DE9F041924B1B68012B08D1FFF7CAFF4C
:10193000FFF73EFC00238F4A13708F4A1370002478
:1019400010E125468D49630023445A008B185888BE
:101950008B5A98427BD08A4B1B78DBB29C4276D064
:101960006200224453000B4459791879FFF74CFC6C
:10197000082C62D8DFE804F0171723052F384E4EE5
:101980005A0004EB440253007C4AD35A7D48A0FB22
:101990000330C008FFF768FC764B1878764B19784F
:1019A000FFF732FC49E004EB44025300734AD05A7B
:1019B000FFF75AFC01217448FFF7CAFB3DE004EB36
:1019C000440253006D4AD05AFFF74EFC01216F4884
:1019D000FFF7BEFB31E0694B1A8B02216C4B53F8C9
:1019E0002200FFF7B5FB28E0644BDB8B02330321B9
:1019F000674A52F82300FFF7ABFB0C210020FFF7EA
:101A000003FC01216348FFF7A3FB03210020FFF73C
:101A1000FBFB12E004EB44025300584AD05AFFF794
:101A200023FC01215C48FFF793FB06E004EB440232
:101A30005300524AD05AFFF717FC504A6B0058190E
:101A400041000846515A03461344598088E04C4BE4
:101A50001B78DBB29C4240F083806A002A4453002A
:101A6000464A134459791879FFF7CEFB082C6BD8F6
:101A7000DFE804F0050512541F283E3E4B0005EB3D
:101A8000450253003D4A13445888FFF7EDFB0121FE
:101A90003D48FFF75DFB57E005EB45025300374A31
:101AA00013445888FFF7E0FB01213848FFF750FB4B
:101AB0004AE0324B5A8B0221354B53F82200FFF794
:101AC00047FB41E02D4B1B8C02330321304A52F877
:101AD0002300FFF73DFB0C210020FFF795FB0121C0
:101AE0002C48FFF735FB03210020FFF78DFB2BE08F
:101AF00005EB45025300214A13445888FFF7B4FB15
:101B000001212548FFF724FB1EE005EB45025300A9
:101B10001A4A13445888FFF7A7FB15E0174F6B00CC
:101B20002B445E0007EB0608BB5B1648A0FB0330A6
:101B3000C008FFF799FB0F4B18780F4B1978FFF788
:101B400063FBBB5BA8F802300C4A690048194300EC
:101B5000134458880D446B00D052FF22084B1A7072
:101B60000134E4B2082C7FF6ECAEBDE8F08100BF92
:101B700018020020780300207B030020A801002029
:101B80001C020020CDCCCCCC1C2E0008202E00083E
:101B9000E4010020242E0008282E000810B52C4B4C
:101BA0001B68012B03D1FFF7A5FEFFF701FB294BB3
:101BB0001A78294B1B789A420ED001210020FFF79A
:101BC00023FB254C2078FFF74FFB01212348FFF72B
:101BD000BFFA22781F4B1A701E4B5A781E4B5B7847
:101BE0009A420ED004210020FFF70EFB1A4C6078B9
:101BF000FFF73AFB01211948FFF7AAFA6278154B63
:101C00005A70144B9A78144B9B789A420ED0072145
:101C10000020FFF7F9FA104CA078FFF725FB01210F
:101C20000E48FFF795FAA2780A4B9A70094B9A88EA
:101C3000094B9B889A420AD00A210020FFF7E4FA58
:101C4000054CA088FFF710FBA288024B9A8010BDBC
:101C50001002002008020020100600201C2E0008A0
:101C600010B5244B1B7813B1012B40D010BDFFF7EA
:101C700057FE214B1B78DBB2012B21D100221F4BD9
:101C80001A701F4B18781F4C2178FFF7BDFAFFF729
:101C900003FD23782378DBB20F2B0DD8184B1B786C
:101CA00003F0FF0213B1012A03D010BDFFF7CAFDF4
:101CB00010BDFFF78DFD10BD0022124B1A7010BD34
:101CC0000D4B1B7813F0FF0F13D1FF220E4B1A7030
:101CD0000A4B1B78134207D10023094A1370094AA3
:101CE00013700122054B1A70FFF7D2FD10BDFFF7EC
:101CF00055FF10BD7C030020790300207A030020EB
:101D0000780300207B0300201C02002010B582B065
:101D100000248DF807400120FEF726FE0120FEF783
:101D20004DFE2046FEF7A0FE0120FEF79DFEFEF7C9
:101D3000E1FFFFF7E5F9FEF715FDFFF739FAFEF7CA
:101D40007DFF0448FFF794FBFEF72EFD204602B00E
:101D500010BD00BF0C060020474B1B684D2B12D155
:101D6000464A13780133DBB21370012B03D10122F1
:101D7000434B1A7004E00023404A1370404A13702A
:101D8000FF223D4B1A603C4B1B68532B10D13C4B40
:101D90001B7813B1012B04D006E00122394B1A70D5
:101DA00002E00122384B1A70FF22334B1A60704751
:101DB000314B1B684F2B10D1314B1B7813B1012BCA
:101DC00004D006E000222F4B1A7002E000222E4BB6
:101DD0001A70FF22284B1A607047274B1B68542B40
:101DE00010D1274B1B7813B1012B04D006E05222EF
:101DF000264B1A7002E00422234B1A70FF221E4B5E
:101E00001A6070471C4B1B68502B1ED11C4B1B7853
:101E100013B1012B04D014E04C221C4B1A7010E0BB
:101E20001B4A13780133DBB21370012B03D102225A
:101E3000154B1A7005E00022154B1A700322124B45
:101E40001A70FF220C4B1A6070470B4B1B68552B06
:101E500006D155220D4B1A70FF22074B1A607047AE
:101E6000054B1B68442B05D14422084B1A70FF22F6
:101E7000014B1A60704700BF0C0600207D03002054
:101E80007C030020790300201D02002014020020A2
:101E90007E030020144A9388C8339BB29380B3F525
:101EA0007A7F05D1134600229A809A7801329A707F
:101EB0000D4B9B783C2B05D10B4B00229A705A7826
:101EC00001325A70084B5B783C2B05D1064B00223F
:101ED0005A701A7801321A70034B1B78182B02D1F2
:101EE0000022014B1A7070471006002008B5084BFD
:101EF0001B782BB9074A00211170517091709180A5
:101F0000012B01D0032B01D1FFF7C4FF08BD00BF97
:101F10001D0200201006002000B583B000200090B4
:101F2000CDF803006946FEF7DFFE0DF10101012047
:101F3000FEF7DAFE0DF102010220FEF7D5FE0DF1EB
:101F400003010320FEF7D0FE01A90420FEF7CCFE1A
:101F50000DF105010520FEF7C7FE0DF10601062073
:101F6000FEF7C2FE9DF80030012B03D14D20FFF794
:101F70001BFA2EE09DF80130012B03D15320FFF70F
:101F800013FA26E09DF80230012B03D14F20FFF712
:101F90000BFA1EE09DF80330012B03D15420FFF70C
:101FA00003FA16E09DF80430012B03D15020FFF70F
:101FB000FBF90EE09DF80530012B03D15520FFF70A
:101FC000F3F906E09DF80630012B02D14420FFF71B
:101FD000EBF903B05DF804FB53B94AB9002908BF17
:101FE00000281CBF4FF0FF314FF0FF3000F07EB9EA
:101FF000ADF1080C6DE904CE00F006F8DDF804E060
:10200000DDE9022304B070472DE9F0478C460E4607
:102010000446089D002B50D18A4217466CD9B2FA6B
:1020200082FEBEF1000F0BD0CEF1200420FA04F4A2
:1020300001FA0EF644EA060C02FA0EF700FA0EF464
:102040004FEA1749220CBCFBF9F01FFA87F809FB8D
:1020500010C642EA064600FB08F3B34209D9F61956
:1020600000F1FF3280F02281B34240F21F8102383A
:102070003E44F61AA2B2B6FBF9F309FB136642EA34
:10208000064403FB08F8A04509D9E41903F1FF321F
:1020900080F00A81A04540F20781023B3C44C8EB36
:1020A000040443EA00400021002D62D024FA0EF41B
:1020B00000232C606B60BDE8F0878B4207D9002DB0
:1020C00055D0002185E841000846BDE8F087B3FA05
:1020D00083F1002940F09080B34202D3824200F2A3
:1020E000F880841A66EB03060120B446002D40D028
:1020F00085E81010BDE8F08712B90127B7FBF2F7A9
:10210000B7FA87FEBEF1000F35D1F31B4FEA17482F
:102110001FFA87FC0121B3FBF8F0220C08FB1036F4
:1021200042EA06460CFB00F3B34207D9F61900F168
:10213000FF3202D2B34200F2CE801046F61AA2B2AB
:10214000B6FBF8F308FB136642EA06440CFB03FCFB
:10215000A44507D9E41903F1FF3202D2A44500F2E5
:10216000B5801346CCEB040443EA00409CE72946C3
:102170002846BDE8F087CEF1200106FA0EF307FAF3
:102180000EF720FA01F94FEA1748CE4049EA030951
:10219000B6FBF8FA4FEA194408FB1A661FFA87FCE7
:1021A00044EA06430AFB0CF29A4200FA0EF40AD9FA
:1021B000DB190AF1FF3180F087809A4240F2848077
:1021C000AAF1020A3B449B1A1FFA89F9B3FBF8F102
:1021D00008FB113349EA034301FB0CF69E4207D981
:1021E000DB1901F1FF326BD29E4269D902393B44BF
:1021F0009B1B41EA0A418EE7C1F1200E22FA0EF440
:102200008B40234320FA0EF706FA01F44FEA134CF1
:1022100026FA0EF63C43B6FBFCF9270C0CFB1966BC
:102220001FFA83F847EA064609FB08F7B74202FAA5
:1022300001F200FA01FA08D9F61809F1FF3041D28B
:10224000B7423FD9A9F102091E44F61BA0B2B6FB62
:10225000FCF40CFB146640EA064704FB08F8B8459A
:1022600007D9FF1804F1FF3028D2B84526D9023C1F
:102270001F4444EA0940C8EB0707A0FB02894F4509
:1022800044464E4614D329D065B3BAEB040367EB3A
:10229000060707FA0EFECB40CF404EEA030385E85F
:1022A00088000021BDE8F0871346F8E61046E0E616
:1022B000B8EB020469EB03060138E5E70446D8E70A
:1022C000114695E78146C0E78A467CE7023B3C44DD
:1022D00048E708460AE702383E442FE7C245E7D3FD
:1022E0003E46D1E72946BDE8F08700BF704700BFF2
:1022F000014B1868704700BF8002002030B5141EE3
:1023000005469BB0184604DA8B232B604FF0FF3054
:102310001DE04FF40273ADF80C3014BF04F1FF332D
:102320002346029305934FF6FF7300910491ADF895
:102330000E3002461E9B6946284600F073F8431C87
:10234000BCBF8B232B6014B1009B00221A701BB002
:1023500030BD000007B5009313460A460146034806
:102360000068FFF7CBFF03B05DF804FB800200209C
:102370002DE9F0478E689E4282460C46914698466B
:102380003ED88A8912F4906F3AD0256809696F1A8D
:102390006569022305EB450595FBF3F57B1C43447A
:1023A0009D4238BF1D4653050FD5294600F094FBCA
:1023B000064698B13A46216900F01AFBA38923F436
:1023C000906343F08003A38113E02A4600F0E2FB10
:1023D000064670B92169504600F030FB0C23CAF85C
:1023E0000030A38943F04003A3814FF0FF30BDE8E4
:1023F000F087266165613E44ED1B2660A560464678
:10240000464528BF464632464946206800F0FBFA5A
:10241000A3689B1BA36023681E4426600020BDE8C0
:10242000F08700002DE9F04F9DB0804603938B8923
:102430001C060D4616460DD50B695BB9402100F010
:102440004BFB2860286118B90C23C8F80030CDE098
:1024500040236B610023099320238DF82930DFF896
:102460009CB130238DF82A3037463C4614F8013BA6
:102470001BB9B7EB060910D003E0252BF9D027468E
:10248000F3E74B46324629464046FFF771FF0130DD
:1024900000F0A780099B4B4409933B78002B00F088
:1024A000A08000234FF0FF32049307930592069318
:1024B0008DF853301A930126052221784E4800F0FA
:1024C00047FA671C049B38B14B4A801A06FA00F0A1
:1024D000184304903C46EFE7D90644BF20228DF80C
:1024E00053201A0744BF2B228DF8532022782A2A22
:1024F00003D0079A00210A200BE0039A111D1268ED
:102500000391002A10DA524243F00200079204902D
:102510000BE0274601343B78303B092B03D800FB06
:1025200002320121F5E701B107923B782E2B1ED133
:102530007B782A2B0AD1039B1A1D1B680392002B60
:10254000B8BF4FF0FF330237059310E00023059327
:10255000781C19460A24074601303A78303A092A8D
:1025600003D804FB01210123F5E703B10591032200
:102570003978224800F0ECF940B14023CBEB000061
:1025800003FA00F0049B18430490013739781C4883
:102590008DF8281006227E1C00F0DAF988B1194B5C
:1025A00033B9039B073323F007030833039314E085
:1025B00003AB00932A46144B04A94046AFF30080B6
:1025C00007E003AB00932A460F4B04A9404600F0F6
:1025D00093F8B0F1FF3F824603D0099B534409931F
:1025E00042E7AB895B0601D4099801E04FF0FF3068
:1025F0001DB0BDE8F08F00BF2C2E0008322E000861
:10260000362E000800000000712300082DE9F04775
:1026100091461F460A698B68DDF820809342B8BF57
:102620001346C9F8003091F8432006460C4612B113
:102630000133C9F800302368990642BFD9F8003049
:102640000233C9F80030256815F0060510D104F1F1
:10265000190A07E00123524639463046C047013087
:102660001AD00135E368D9F800209B1A9D42F1DBAE
:1026700094F843302268003318BF012392060FD527
:10268000E1185A1C302081F84300224494F8451088
:1026900082F84310023303E04FF0FF30BDE8F087CB
:1026A00004F1430239463046C0470130F4D0226875
:1026B000D9F80050E36802F00602042A08BF5D1B47
:1026C0002269A3680CBF25EAE57500259342C4BFC3
:1026D0009B1AED184FF000091A344D4509D001231B
:1026E000224639463046C0470130D5D009F10109AC
:1026F000F3E70020BDE8F0872DE9F04317460A7E96
:1027000085B06E2A984606460C460C9B01F1430E96
:1027100000F0AE8011D8632A22D009D8002A00F038
:10272000BB80582A40F0CA8081F84520834955E093
:10273000642A1ED0692A1CD0C0E0732A00F0B08041
:1027400009D86F2A2ED0702A40F0B8800A6842F06B
:1027500020020A603EE0752A24D0782A3AD0ADE003
:102760001A6801F14205111D1960136884F842309E
:10277000A8E021681A6811F0800F02D0111D1960BD
:1027800008E011F0400F02F10401196002D0B2F923
:10279000003000E01368002B3CDA2D225B4284F805
:1027A000432037E021681A6811F0800F02D0111D14
:1027B000196007E011F0400F02F10401196001D027
:1027C000138800E01368227E5C496F2A14BF0A2236
:1027D00008221BE078225A4984F8452022681868AC
:1027E00012F0800F00F104051D6003D1550601D5DC
:1027F000038800E00368D00744BF42F02002226053
:102800001BB9226822F0200222601022002084F8E6
:10281000430001E049490A226568A560002D08DBF4
:10282000206820F0040020602BB9002D7DD1754672
:102830000CE0002B79D07546B3FBF2F002FB1033AD
:10284000CB5C05F8013D03460028F5D1082A0BD1E1
:102850002368DA0708D5236962689A42DEBF30230D
:1028600005F8013C05F1FF35C5EB0E0323612EE0B1
:1028700008681A68496910F0800F03D0101D1860AD
:10288000136808E010F0400F02F1040018601368AC
:1028900001D0198000E0196000232361754616E01D
:1028A0001A68111D1960156862680021284600F039
:1028B0004FF808B1401B6060636804E004F1420512
:1028C00084F8422001232361002384F84330CDF8AB
:1028D00000803B4603AA21463046FFF797FE0130B1
:1028E00002D14FF0FF3026E023692A4639463046B0
:1028F000C0470130F5D023689B0710D5002504F1AF
:10290000190907E001234A4639463046C0470130DD
:10291000E7D00135E368039A9B1A9D42F2DBE06839
:10292000039B9842B8BF184605E00B7884F8423004
:1029300004F142058AE705B0BDE8F0833D2E0008AA
:102940004E2E000800000000000000000000000003
:1029500001F0FF01102A2BDB10F0070F08D010F850
:10296000013B013A8B422DD010F0070F42B3F6D154
:10297000F0B441EA012141EA014122F007047FF06D
:1029800000070023F0E80256083C85EA010586EAC4
:10299000010685FA47F5A3FA87F586FA47F6A5FA00
:1029A00087F68EB9EED1F0BC01F0FF0102F007020C
:1029B00032B110F8013B013A83EA010313B1F8D1B7
:1029C0000020704701387047002D06BF3546033898
:1029D000073815F0010F07D1013015F4807F02BFD1
:1029E000013015F4C03F0130F0BC0138704700BF22
:1029F00010B5431E0A44914204D011F8014B03F86C
:102A0000014FF8E710BD884210B501EB020301D871
:102A1000421E0BE09842FBD28118D21AD34204D056
:102A200013F8014D01F8014DF8E710BD994204D0AB
:102A300011F8014B02F8014FF8E710BD38B5054613
:102A4000002946D051F8043C0C1F002BB8BFE418F5
:102A500000F0D6F81F4A1368114613B9636014607A
:102A600032E0A3420ED92268A018834204BF18683E
:102A70005B68636004BF121822600C6024E0A2420D
:102A800003D813465A68002AF9D118681918A142C8
:102A90000BD12168014458188242196014D1106882
:102AA00052685A60014419600EE002D90C232B6071
:102AB0000AE021686018824204BF106852686260B0
:102AC00004BF091821605C602846BDE8384000F06A
:102AD00098B838BD8403002070B5CD1C25F00305DF
:102AE00008350C2D38BF0C25002D064601DBA94208
:102AF00002D90C23336046E000F082F8234B1C68B7
:102B00001A462146A1B10B685B1B0ED40B2B03D9CF
:102B10000B60CC18CD501EE08C420DBF63684B6833
:102B20006360136018BF0C4615E00C464968E9E77E
:102B3000174C23681BB9304600F052F82060294634
:102B4000304600F04DF8431C18D0C41C24F0030498
:102B5000A0420DD12560304600F053F804F10B007F
:102B6000231D20F00700C31A0ED05A42E25070BD58
:102B7000211A304600F034F80130EBD10C233360D9
:102B8000304600F03EF8002070BD00BF84030020F6
:102B900080030020F8B5074615460E4621B91146B8
:102BA000BDE8F840FFF798BF1AB9FFF747FF28467E
:102BB000F8BD00F027F885420ED929463846FFF7C0
:102BC0008BFF044650B131462A46FFF711FF3146CC
:102BD0003846FFF733FF01E03046F8BD2046F8BD28
:102BE00038B5064C0023054608462360FDF71AFC5D
:102BF000431C02D1236803B12B6038BD8803002039
:102C00007047704751F8040C0028BEBF091851F8EE
:102C1000043CC01804387047537461636B206672BB
:102C2000616D653A0A000000205230203D202025C9
:102C30003038580A00000000205231203D20202565
:102C40003038580A00000000205232203D20202554
:102C50003038580A00000000205233203D20202543
:102C60003038580A0000000020523132203D202523
:102C70003038580A00000000204C52203D2020250A
:102C80003038580A00000000205043203D20202505
:102C90003038580A0000000020505352203D2025B3
:102CA0003038580A000000004653522F4641523A2D
:102CB0000A0000002043465352203D202025303892
:102CC000580A00002048465352203D202025303825
:102CD000580A00002044465352203D202025303819
:102CE000580A00002041465352203D20202530380C
:102CF000580A0000204D4D464152203D20253038D5
:102D0000580A00002042464152203D2020253038FC
:102D1000580A00004D6973630A000000204C522FCE
:102D20004558435F52455455524E3D202530385842
:102D30000A0000005B486172644661756C745D0A4C
:102D4000000000005B4275734661756C745D0A009B
:102D50005B55736167654661756C745D0A000000C0
:102D6000000000000000000001020304060708093B
:102D70004C43440053575F47657453746174650056
:102D800050726F63657373696E670000537769747F
:102D900063685F4150500000446973706C61790052
:102DA0004469676974616C576174636843616C63FB
:102DB0000000000053746F7057617463685F507255
:102DC0006F63657373000000000402400700000099
:102DD00000000000090000000000024002000000A6
:102DE000020000000A000000000002400200000093
:102DF00002000000414D0000504D0000536174007E
:102E000053756E004D6F6E005475657300000000C1
:102E100057656E0054687500467269003A000000FC
:102E20002E000000300000002D000000232D302B6C
:102E30002000686C4C0065666745464700303132BB
:102E40003334353637383941424344454600303112
:0F2E500032333435363738396162636465660072
:082E6000A8F1FF7F0100000052
:102E68007856341290020020000000000024F4007C
:102E7800702D00080200000000000000C9120008C0
:102E880000000000742D000805000000000000008C
:102E9800750C000800000000802D00086400000088
:102EA80000000000591D0008020000008C2D0008D9
:102EB800C800000000000000191F00080100000001
:102EC800982D0008C800000000000000611C0008E0
:102ED80001000000A02D00086400000000000000B0
:102EE8005115000801000000B42D0008C8000000BA
:102EF80000000000ED1E0008010000000004024070
:102F0800080000000400000000040240090000005E
:102F180004000000000402400A0000000400000051
:102F2800000402400C0000000400000000040240FD
:102F38000D00000004000000000402400E00000024
:102F480004000000000402400F000000040000001C
:102F5800010304FF0000024000000000010000001F
:102F68000000000000000240010000000100000015
:102F78000000000000000240020000000100000004
:102F880000000000000002400300000001000000F3
:102F980000000000000002400400000001000000E2
:102FA80000000000000002400500000001000000D1
:102FB80000000000000002400600000001000000C0
:102FC80000000000000002400700000001000000AF
:102FD80000000000000402400000000001000000A2
:102FE8000000000000040240010000000100000091
:102FF8000000000000040240020000000100000080
:10300800000000000101FFFF0C00E80300013B0085
:10301800E80300043500E80300070000E803000A9D
:103028000100E803000E0000E80301001E00E803A9
:1030380001040C00E8030107E807E803010A00009F
:1030480000000000F42D0008F82D0008FC2D0008F1
:10305800002E0008042E0008082E0008102E000874
:10306800142E0008182E0008642121000000FFFF1C
:1030780001000000FFFFFFFF01000000FF01FFFF4C
:103088000000000000000000000000000000000038
:103098000000000000000000000000000000000028
:1030A8000000000000000000000000000000000018
:1030B8000000000000000000000000000000000008
:1030C80000000000000000000000000000000000F8
:1030D80000000000000000000000000000000000E8
:0830E80020020020325476980A
:040000050800019559
:00000001FF
